:020000040800F2
:10000000F008002045010008A11A00084D1A000858
:100010009D1A0008F5090008B72300080000000039
:10002000000000000000000000000000591C000853
:10003000F909000800000000291B00086D1D0008D8
:100040005F0100085F0100085F0100085F01000810
:100050005F0100085F0100085F0100085F01000800
:100060005F0100085F0100085F0100085F010008F0
:100070005F0100085F0100085F0100085F010008E0
:100080005F0100085F0100085F0100085F010008D0
:100090005F0100085F0100085F0100085F010008C0
:1000A0005F0100085F0100085F0100085F010008B0
:1000B0005F0100085F0100085F0100085F010008A0
:1000C0005F0100085F0100085F0100085F01000890
:1000D0005F0100080D1E00085F010008F91F0008FD
:1000E0005F0100085F0100085F0100085F01000870
:1000F0005F0100085F0100085F0100085F01000860
:100100005F0100085F0100085F0100085F0100084F
:100110005F0100085F0100085F0100085F0100083F
:100120005F0100085F0100085F0100085F0100082F
:10013000DFF80CD000F0F0FA004800478D290008E5
:10014000F00800200648804706480047FEE7FEE723
:10015000FEE7FEE7FEE7FEE7FEE7FEE7FEE7FEE777
:10016000AD1D00083101000840EA01039B0703D0E0
:1001700009E008C9121F08C0042AFAD203E011F8E6
:10018000013B00F8013B521EF9D27047D2B201E0A8
:1001900000F8012B491EFBD270470022F6E710B58C
:1001A00013460A4604461946FFF7F0FF204610BDE5
:1001B00030B505462A460B4612F8010B13F8014BE1
:1001C00008B1A042F8D01CB1002802D06D1CF1E7A4
:1001D000284630BD421C10F8011B0029FBD1801AB3
:1001E00070472DE9FE4F804681EA0300C00F0C46A0
:1001F000009021F0004123F00045B8EB0200A94136
:1002000005D24046214690461C460B46024623F046
:100210000040104347D0270DC7F30A00C3F30A512B
:100220000290401A019040286BDAC3F3130040F4A7
:10023000801B0098924620B10023D2EB030A63EBA7
:100240000B0B01985946C0F14002504600F09EF950
:1002500006460D4650465946019A00F0B6F910EB95
:1002600008006141002487EA115284EAE7731A43C7
:1002700040D0009A62B3019A012A4FEA075215DC76
:10028000001B61EB02014FF0004202EA0752CDE988
:100290000042001C41F5801132462B4600F0EDF97A
:1002A00003B0BDE8F08F40462146F9E7001B61EB43
:1002B0000201001C41F5801300185B412018A2F5D3
:1002C000001747EB030140EAD570B6196D4111E004
:1002D0006D084FEA360645EAC0754FEA0752001B23
:1002E00061EB0201001C41F5801149084FEA300022
:1002F0000019514132462B4603B0BDE8F04F00F0E3
:10030000ADB90098012240000023D0EB020263EB5C
:10031000E073009821464FEAE074B8EB000061EB0F
:100320000401E9E783F000435BE781F0004158E70F
:100330002DE9FE4F81EA030404F0004421F000415E
:1003400000944FF0000B23F0004350EA01045ED00C
:1003500052EA03045BD0C3F30A54C1F30A552C4498
:10036000A4F2F3340194A0FB0254C1F3130141F44D
:100370008011C3F3130343F4801301FB024400FB19
:10038000034E840A970A44EA815447EA8357A4FB40
:10039000076802958D0A05FB07854FEA932C04FB3D
:1003A0000C542705029D4FEA065847EA1637B5EB6D
:1003B00008056EEB070C870E920E47EA811742EA9A
:1003C0008312A7FB0201B6EB0B0164EB00042B0DBB
:1003D00043EA0C335E1844EB1C50DA465146E7FB07
:1003E0000201C5F313044FEA0B3343EA14534FEAF7
:1003F0000432019C43EA0603A4F10C040294009C1D
:10040000CDE900B400F039F903B0BDE8F08F002069
:100410000146F9E72DE9F04D81EA030404F0004BB1
:1004200021F0004514464FF0000A23F0004150EA45
:10043000050220D054EA01021DD0C5F30A57024636
:10044000C5F31303C1F31300C1F30A5640F480153A
:1004500043F48013A7EB0608101BD64608F2FD38BC
:1004600073EB050002D308F1010801E092185B412B
:10047000B8F1000F03DA00200146BDE8F08D00203E
:100480004FF48011064684460EE0171B73EB0507F8
:1004900005D3121B63EB050306434CEA010C490824
:1004A0004FEA300092185B4150EA0107EDD152EA61
:1004B000030012D082EA040083EA0501084305D054
:1004C000101BAB4106D20122002306E000224FF0B0
:1004D000004302E06FF0010253101AEB06004CEBF0
:1004E000085110EB0A0041EB0B01BDE8F04D00F0A4
:1004F000B5B896230022114600F082B870B5C1F35A
:100500000A5201F000450024C1F3130140F2FF3309
:1005100041F480119A4201DA002070BD40F2334369
:100520009A42A2F2334203DC524200F03EF800E06D
:1005300090402C43F1D0404270BD00F0004230F0BA
:1005400000400AD0C10D01F56071C0F3160042EA07
:100550000151C2084007114370470020014670470F
:1005600030B50B46014600202022012409E021FA83
:1005700002F59D4205D303FA02F5491B04FA02F580
:100580002844151EA2F10102F1DC30BD202A04DB53
:10059000203A00FA02F1002070479140C2F1200396
:1005A00020FA03F3194390407047202A04DB203AD5
:1005B00021FA02F00021704721FA02F3D040C2F183
:1005C00020029140084319467047202A06DBCB17CA
:1005D000203A41FA02F043EAE07306E041FA02F3FE
:1005E000D040C2F1200291400843194670470029CB
:1005F000A8BF7047401C490008BF20F001007047A9
:1006000010B4B0FA80FC00FA0CF050EA010404BF08
:1006100010BC704749B1CCF1200421FA04F411FA5E
:100620000CF118BF012121430843A3EB0C01CB1DA2
:100630004FEA00614FEA102042BF002010BC704713
:1006400000EBC35010440029A4BF10BC7047401CED
:10065000490008BF20F0010010BC704710B5141EFF
:1006600073F1000408DA401C41F1000192185B416B
:100670001A4301D120F0010010BD2DE9F04D924642
:100680009B4611B1B1FA81F202E0B0FA80F2203259
:100690009046FFF77BFF04460F4640EA0A0041EA16
:1006A0000B0153465A46084313D0114653EA010042
:1006B00019D0C8F140025046FFF777FF05460E46B5
:1006C000504659464246FFF761FF084305D00120D6
:1006D00004E020463946BDE8F08D0020054346EA97
:1006E000E0762C4337430A986305E40AA0EB080040
:1006F0000022FD0A44EA47540A3002D50020014690
:10070000E9E7010510196941DDE90845001969416A
:10071000BDE8F04DA2E70000064C074D06E0E0689A
:1007200040F0010394E8070098471034AC42F6D338
:10073000FFF702FD6C2C00088C2C000821B18268A8
:1007400042F00102826003E0826822F001028260CE
:100750007047014600208A6802F004020AB10120B5
:1007600000E0002070470146C86C80B27047024626
:10077000002013680B400BB1012000E000207047FF
:10078000014600208A6802F008020AB1012000E058
:100790000020704730B502460020002350680F4CFF
:1007A00020400D790C6844EA05242043506090688D
:1007B0000B4C2040D1E902542C434D7944EA4504C6
:1007C00020439060D06A20F470000C7C641EE4B278
:1007D000234340EA0350D06230BD0000FFFEF0FF2B
:1007E000FDF7F1FF00B587B00121042001F0BAF94F
:1007F0000121480201F0B6F94FF4004001F096F9EA
:100800000220ADF8180000208DF81B0006A916483C
:1008100000F0D0FF002001908DF808008DF809004D
:100820004FF4602003900020049001208DF8140004
:1008300001A90E48FFF7AEFF01210C48FFF77EFF2C
:100840000A4800F071F800BF0848FFF799FF002838
:10085000FAD1064800F078F800BF0448FFF779FFA6
:100860000028FAD107B000BD000801400024014073
:10087000F0B504460D4600200021092D11DDE06889
:10088000A5F10A0606EB4607072606FA07F1884394
:10089000A5F10A0606EB460603FA06F10843E060F6
:1008A0000CE0206905EB4507072606FA07F18843A7
:1008B00005EB450603FA06F108432061072A0FDA23
:1008C000606B561E06EB86071F2606FA07F1884363
:1008D000561E06EB860605FA06F10843606322E021
:1008E0000D2A0FDA206BD61F06EB86071F2606FAA5
:1008F00007F18843D61F06EB860605FA06F1084382
:10090000206310E0E06AA2F10D0606EB86071F26C1
:1009100006FA07F18843A2F10D0606EB860605FAF2
:1009200006F10843E062F0BD816841F00801816092
:10093000704721B1826842F4A002826003E08268BD
:1009400022F4A00282607047816841F00401816056
:100950007047000030B10749096841F40001054AB9
:10096000116005E00349096821F40001014A1160A2
:10097000704700000824014000B585B001214802FD
:1009800001F0F0F84FF4004001F0D0F80120FFF73B
:10099000E1FF002000908DF804008DF805004FF471
:1009A000602002900020039001208DF8100069461D
:1009B0000F48FFF7EFFE01210D48FFF7BFFE0C487F
:1009C000FFF7B2FF00BF0A48FFF7DAFE0028FAD1AE
:1009D0000748FFF7B9FF00BF0548FFF7BAFE002838
:1009E000FAD101210248FFF7A4FF05B000BD0000C5
:1009F0000024014000BFFEE77047000010B5044628
:100A0000012C04D11021044800F0AAFF03E01021BA
:100A1000014800F0A3FF10BD000801402DE9F0419E
:100A200006460C4615461F462548B0F800046FF3ED
:100A30000E002349A1F80004324622A1234801F008
:100A400037FB1CB915B90120BDE8F081B8B201F03F
:100A500017FF00201A49B1F80014C1F30E01184A1B
:100A6000505411461AA001F031FDB4B1ADB1214688
:100A70001348FFF79DFB08B1012000E0002040B9BA
:100A800029460F48FFF794FB08B1012000E0002041
:100A900008B10120D8E70020D6E744B12146084834
:100AA000FFF786FB08B10120CEE70020CCE72946FE
:100AB0000348FFF77DFB08B10120C5E70020C3E72D
:100AC000E800002025730D0A0000000000480040E7
:100AD0002573000010B586B004460CB1012000E07B
:100AE0000020024606A101A801F000FD4FF4FA73B0
:100AF000002207A101A8FFF791FF06B010BD00007A
:100B000041542B4349504D55583D25640000000089
:100B10004F4B000030B59FB004460D462B46224691
:100B200006A101A801F0E2FC41F65833002208A119
:100B300001A8FFF773FF1FB030BD000041542B43E5
:100B4000574A41503D222573222C22257322000052
:100B50004F4B000070B5B8B004460D4616466421F0
:100B60001FA8FFF71AFB0FA001F0B0FC2B4622468E
:100B700019A11FA801F0BAFC1FAA19A101A801F030
:100B8000B5FC01A91BA001F0A1FC1FA001F09EFC77
:100B900042F210732AA22EA101A8FFF73FFF38B03E
:100BA00070BD00002020202020205573696E672032
:100BB00073696D706C6966696564204D5154542089
:100BC000636F6E6E65637420636F6D6D616E642E0E
:100BD0002E2E0D0A00000000222573222C25730002
:100BE00041542B4D515454434F4E4E3D302C2573A0
:100BF0002C31000020202020202053656E64696E77
:100C0000673A2025730D0A002020202020205761FC
:100C10006974696E6720757020746F20313020739D
:100C200065636F6E647320666F72204D515454205B
:100C3000636F6E6E656374696F6E2E2E2E0D0A00E3
:100C4000414C5245415920434F4E4E4543540000BC
:100C50004F4B000010B5044624B1012C0AD0022CE1
:100C600018D10FE040F6C4130BA20EA10EA0FFF79F
:100C7000D5FE10BD40F6C41307A20AA10DA0FFF7D0
:100C8000CDFEF6E740F6C41303A206A10CA0FFF7C1
:100C9000C5FEEEE70020ECE76E6F206368616E67CB
:100CA000650000004F4B000041542B43574D4F440B
:100CB000453D310041542B43574D4F44453D320093
:100CC00041542B43574D4F44453D330010B54FF42D
:100CD0000041064800F042FE4FF4FA7001F0D0FDEA
:100CE0004FF40041014800F03BFE10BD00080140F8
:100CF0002DE9F04F85B072A70FF2D01A0FF2D81875
:100D00000FF2E41900250024142279496846FFF700
:100D10002BFA4FF0050B002676A001F0D7FB80A040
:100D200001F0D4FB86A001F0D1FB8FA001F0CEFB37
:100D30000120FFF763FE4FF4FA7001F0A1FD92A0CD
:100D400001F0C4FBFFF7C2FF4FF4FA6001F098FD19
:100D500095A001F0BBFB00BF3EE05DF82610A1A00E
:100D600001F0B4FB5DF8260001F084F9C82001F021
:100D700087FDA448B0F800046FF30E00A149A1F864
:100D800000040846B0F8000420F40040A1F8000474
:100D90009DA19F4801F08CF94FF47A7001F070FD2D
:100DA00000209849B1F80014C1F30E01954A50543F
:100DB00098A11046FFF7FCF948B197A001F086FB17
:100DC0005DF826109AA001F081FB012406E0A1A0A5
:100DD00001F07CFB701CC6B25E45BEDB00BF002C80
:100DE0001AD1A1A001F072FBABA001F06FFBAEA085
:100DF00001F06CFBB8A001F069FBC3A001F066FB39
:100E0000C9A001F063FB06E04FF4FA6001F038FD81
:100E1000CCA001F05BFBF7E7D1A001F057FB00206D
:100E2000FFF718FF10B1D6A001F050FB3946DBA048
:100E300001F04CFB0024002516E0691CE0A001F045
:100E400045FB51463846FFF765FE04464CB9E2A023
:100E500001F03CFB681CC5B240F6B83001F010FD53
:100E600002E0DFA001F032FB002CE6D0DEA001F0B2
:100E70002DFB40F6B83001F003FDE6A001F026FBA3
:100E80004FF4FA63002263A1EEA0FFF7C7FD4FF411
:100E9000FA6300225FA1EEA0FFF7C0FDF0A001F011
:100EA00015FB40F6B83300225AA1F8A0FFF7B6FDB3
:100EB000FDA001F00BFB0120FFF70CFE0CE200008F
:100EC0006950686F6E6520283829000077786A7944
:100ED000776D6D737A67000062726F6B65722E6555
:100EE0006D71782E696F00003138383300000000D2
:100EF000582C00080D0A3D3D3D3D3D3D3D3D3D3DED
:100F00003D3D3D3D3D3D3D3D3D3D3D3D3D3D3D3D11
:100F10003D3D3D3D3D3D3D3D3D3D0D0A0000000058
:100F200045535038323636204D51545420496E695D
:100F30007469616C697A6174696F6E0D0A000000F2
:100F40003D3D3D3D3D3D3D3D3D3D3D3D3D3D3D3DD1
:100F50003D3D3D3D3D3D3D3D3D3D3D3D3D3D3D3DC1
:100F60003D3D3D3D0D0A00000D0A5B312F385D20EF
:100F7000456E61626C696E67204553503832363673
:100F80002E2E2E0D0A0000005B322F385D20526598
:100F900073657474696E6720455350383236362E47
:100FA0002E2E0D0A000000000D0A5B332F385D2045
:100FB00054657374696E6720415420636F6D6D6171
:100FC0006E647320286175746F2D64657465637435
:100FD00020626175642072617465292E2E2E0D0ABF
:100FE00000000000202020202020547279696E67C4
:100FF000206261756420726174653A2025642E2E2A
:101000002E0D0A00E800002041540D0A00000000E7
:10101000004800404F4B0000202020202020415459
:1010200020526573706F6E7365204F4B210D0A005F
:10103000202020202020466F756E6420636F72721E
:10104000656374206261756420726174653A20255D
:10105000640D0A002020202020204E6F207265732E
:10106000706F6E73650D0A004552524F523A20451B
:10107000535038323636206E6F7420726573706F3D
:101080006E64696E672120436865636B20776972BF
:10109000696E672E0D0A0000506C656173652063F0
:1010A0006865636B3A0D0A00312E20455350383283
:1010B00036362056434320636F6E6E6563746564F5
:1010C00020746F20332E335620284E4F542035562F
:1010D00021290D0A00000000322E205458202D3EF8
:1010E00020504231312C205258202D3E2050423188
:1010F00030202863726F73732D636F6E6E65637437
:101100006564290D0A000000332E2043482F454E08
:10111000202D3E205041342C20525354202D3E206F
:10112000504131350D0A0000342E20474E442063D3
:101130006F6E6E65637465642070726F7065726C3B
:10114000790D0A0057616974696E6720666F7220B5
:10115000455350383236362E2E2E0D0A0000000030
:101160000D0A5B342F385D2053657474696E6720F7
:10117000535441206D6F64652E2E2E0D0A00000021
:10118000202020202020535441206D6F646520735F
:101190006574204F4B210D0A000000000D0A5B35DD
:1011A0002F385D20436F6E6E656374696E672074BF
:1011B0006F20576946693A2025730D0A0000000028
:1011C000202020202020417474656D7074202564D7
:1011D0002E2E2E20000000004641494C0D0A000032
:1011E0004F4B210D0A0000002020202020205761B5
:1011F0006974696E6720666F72206E6574776F72AE
:101200006B2073746162696C6974792E2E2E0D0ADD
:10121000000000000D0A5B352E352F385D20436835
:1012200065636B696E67206E6574776F726B207390
:10123000746174757320616E642049502E2E2E0DDA
:101240000A00000041542B4349465352000000005D
:1012500041542B434950535441545553000000000E
:101260000D0A5B352E362F385D2054657374696E18
:1012700067206E6574776F726B20636F6E6E656347
:101280007469766974792E2E2E0D0A0041542B5004
:10129000494E473D2262726F6B65722E656D7178A3
:1012A0002E696F22000000000D0A5B352E382F38A2
:1012B0005D20456E61626C696E67206D756C746946
:1012C000706C6520636F6E6E656374696F6E732EEC
:1012D0002E2E0D0A0000000059A001F0F7F800249E
:1012E000002529E000F0F8F90446002C21D15EA089
:1012F00001F0ECF8681CC5B2032D15DB61A001F00C
:10130000E5F8FFF7E3FC4FF4FA6001F0B9FA0020CA
:10131000FFF7A0FC51463846FFF7FCFB40F6B8301B
:1013200001F0AEFA002507E04FF47A7001F0A8FA58
:1013300002E062A001F0CAF8002CD3D04A46414630
:1013400066A001F0C3F8002400252EE005224946DE
:101350004046FFF7FFFB0446002C23D142A001F0DA
:10136000B5F8681CC5B2052D17DB67A001F0AEF813
:10137000FFF7ACFC4FF4FA6001F082FA0020FFF7AF
:1013800069FC51463846FFF7C5FB40F6B83001F01E
:1013900077FA00F0A1F9002507E041F2883001F06A
:1013A0006FFA02E067A001F091F8002CCED06FA098
:1013B00001F08CF80024002532E075A175A000F042
:1013C00061F90446002C28D127A001F07FF8681CA1
:1013D000C5B2032D1CDB74A001F078F8FFF776FC92
:1013E0004FF4FA6001F04CFA0020FFF733FC51464D
:1013F0003846FFF78FFB40F6B83001F041FA00F0B5
:101400006BF9052249464046FFF7A4FB002507E09B
:101410004FF47A7001F034FA02E071A001F056F84E
:10142000002CCAD0AFF2345001F050F877A001F090
:101430004DF8AFF2F44001F049F805B0BDE8F08F87
:101440000D0A5B362F385D2053657474696E672012
:101450004D515454207573657220636F6E666967D1
:101460002E2E2E0D0A000000202020202020466174
:10147000696C65642C207265747279696E672E2EB2
:101480002E0D0A00202020202020526573657474E0
:10149000696E6720455350383236362064756520B2
:1014A000746F204D51545420636F6E6669672066D7
:1014B00061696C7572652E2E2E0D0A002020202089
:1014C00020204D515454207573657220636F6E66F1
:1014D0006967204F4B210D0A000000000D0A5B37A1
:1014E0002F385D20436F6E6E656374696E6720747C
:1014F0006F204D515454207365727665723A2025E1
:10150000733A25730D0A0000202020202020526508
:1015100073657474696E67204553503832363620CF
:1015200064756520746F204D51545420636F6E6E46
:10153000656374206661696C7572652E2E2E0D0AC6
:10154000000000002020202020204D515454206312
:101550006F6E6E6563746564207375636365737322
:1015600066756C6C79210D0A000000000D0A5B386D
:101570002F385D205375627363726962696E6720EC
:10158000746F20746F706963732E2E2E0D0A000025
:101590003100000073656E736F722F74656D706536
:1015A0007261747572650000202020202020526531
:1015B00073657474696E672045535038323636202F
:1015C00064756520746F20737562736372696265F8
:1015D000206661696C7572652E2E2E0D0A00000062
:1015E0002020202020205375627363726962656435
:1015F00020746F2073656E736F722F74656D7065E4
:10160000726174757265210D0A0000004D515454C9
:1016100020696E697469616C697A6174696F6E20A2
:10162000636F6D706C657465210D0A0030B59FB0F5
:1016300004460D462B46224606A101A800F056FF9F
:101640004FF4FA630AA20EA101A8FFF7E7F91FB051
:1016500030BD000041542B4D5154545055423D3043
:101660002C222573222C222573222C312C300000B1
:10167000414C5245415920434F4E4E454354000082
:101680004F4B000030B59FB004460D462B46224616
:1016900006A101A800F02AFF4FF4FA7309A20DA1D8
:1016A00001A8FFF7BBF91FB030BD000041542B4D1E
:1016B0005154545355423D302C222573222C25730E
:1016C00000000000414C5245415920434F4E4E45C9
:1016D000435400004F4B000000B59FB00DA000F038
:1016E000F5FE4FF4FA63002217A118A0FFF796F950
:1016F0001BA101A800F0FAFE01A925A000F0E6FE5A
:101700004FF4FA6327A210A101A8FFF787F91FB0D1
:1017100000BD0000202020202020446973636F6EEC
:101720006E656374696E67206578697374696E6746
:10173000204D51545420636F6E6E656374696F6EF3
:101740002E2E2E0D0A0000004F4B000041542B4D51
:10175000515454444953434F4E4E3D300000000015
:1017600041542B4D515454555345524346473D30F7
:101770002C312C22455350383236365F30303122EE
:101780002C22222C22222C302C302C222200000051
:1017900020202020202053656E64696E673A202542
:1017A000730D0A00414C5245415920434F4E4E455E
:1017B000435400002DE9F041024600250026002098
:1017C00000230024002791F803C00CF00F0591F8C6
:1017D00003C00CF0100CBCF1000F03D091F802C054
:1017E0004CEA050591F800C0BCF1000F31D0146837
:1017F00000202BE04FF0010C0CFA00F3B1F800C010
:101800000CEA03069E4220D183004FF00F0C0CFA25
:1018100003F7BC4305FA03FC4CEA040491F803C047
:10182000BCF1280F06D14FF0010C0CFA00FCC2F8F5
:1018300014C00AE091F803C0BCF1480F05D14FF085
:10184000010C0CFA00FCC2F810C0401C0828D1D3CF
:101850001460B1F800C0BCF1FF0F34DD5468002003
:101860002EE000F1080C4FF0010808FA0CF3B1F873
:1018700000C00CEA03069E4221D183004FF00F0CFA
:101880000CFA03F7BC4305FA03FC4CEA040491F894
:1018900003C0BCF1280F05D100F1080C08FA0CF8C0
:1018A000C2F8148091F803C0BCF1480F07D100F1D1
:1018B000080C4FF0010808FA0CF8C2F81080401C20
:1018C0000828CED35460BDE8F0810000F0B50A4688
:1018D000002300240021002500F00046B6F1004F4F
:1018E00002D11D4EF16901E01B4E7168C0F3034542
:1018F00083B200F44016B6F5401F08D121F07061A4
:10190000154E766826F07066134F7E6012E000F484
:101910008016B6F5801F06D1032606FA05F4A1430A
:1019200041F0706106E0460D360103FA06F6B14358
:1019300041F0706122B1460D360103FA06F63143DB
:1019400000F00046B6F1004F02D1034EF16101E014
:10195000014E7160F0BD0000000001404161704720
:10196000016170472DE9F04105460C46002607232A
:10197000012229460F48FEF77BFF002713E00121D3
:101980000C48FEF7D6FF00BF02210A48FEF7EFFE23
:101990000028F9D00748FEF7E6FE0644052000F0CF
:1019A0006FFF781CC7B2A742E9DBB6FBF4F080B248
:1019B000BDE8F0810024014010B50A210120FFF7A5
:1019C000D1FF0446204610BD2DE9F05F0A2110200A
:1019D000FFF7C8FF83465846FEF78BFD8046FEF7AB
:1019E000ACFD06464FF06632114BFEF7A1FC0446F3
:1019F0000D4622462B460F480F49FEF793FC8046C2
:101A00000E4A0F4BFEF706FD064600220D4BFEF771
:101A1000E8FB04460D4600220B4B20462946FEF704
:101A200087FC0646FEF76AFD82465046BDE8F09FF9
:101A300066664A3FE17A14AE47E1F63F22FDF6754D
:101A4000E09C713F000039400000594000BFFEE7B4
:101A500008B50121482000F085F82020ADF80000ED
:101A600010208DF8030003208DF802006946094814
:101A7000FFF7A0FE20210748FFF772FF2020ADF8F6
:101A8000000069460448FFF795FE20210248FFF751
:101A900067FF08BD000C01400018014000BFFEE7D1
:101AA0007047000070B5002100230F22C47804B3F2
:101AB000154C246804F4E064C4F5E064210AC1F123
:101AC0000403CA40447804FA03F1847814402143A3
:101AD00009010E4C0678A155047804F01F05012475
:101AE000AC4005786D11AD0005F1E025C5F8004169
:101AF00009E0047804F01F050124AC40044D067889
:101B0000761145F8264070BD0CED00E000E400E0E1
:101B100080E100E002490143024A11607047000081
:101B20000000FA050CED00E07047000001460020BF
:101B3000034A506820F4404008435060704700005A
:101B40000010024029B1064AD2690243044BDA610F
:101B500004E0034AD2698243014BDA617047000016
:101B60000010024029B1064A92690243044B9A616F
:101B700004E0034A92698243014B9A617047000076
:101B80000010024030B500210022002400232D4D1A
:101B90006D6805F00C0121B1042905D0082923D175
:101BA00005E0294D056022E0274D05601FE0254D29
:101BB0006D6805F47012234D6D6805F480340225BC
:101BC00005EB92421CB9214D554305600BE01D4DBC
:101BD0006D6805F400351DB11C4D5543056002E0EC
:101BE000194D5543056002E0174D056000BF00BF69
:101BF000144D6D6805F0F0010909154D6B5C056821
:101C0000DD4045600F4D6D6805F4E061090A104D37
:101C10006B5C4568DD4085600A4D6D6805F4605178
:101C2000C90A0B4D6B5C4568DD40C560054D6D68AC
:101C300005F44041890B074D6B5CC568B5FBF3F5B6
:101C4000056130BD0010024000127A0000093D001D
:101C50000000002010000020704710B500F002F8CE
:101C600010BD00000CB500200190009033480068C2
:101C700040F480303149086000BF3048006800F40B
:101C8000003000900198401C0190009818B901980C
:101C9000B0F5A06FF1D12948006800F4003010B110
:101CA0000120009001E0002000900098012843D11D
:101CB0002348006840F01000214908600846006889
:101CC00020F0030008600846006840F00200086049
:101CD0001A48406819494860084640684860084604
:101CE000406840F4806048600846406820F47C10FA
:101CF00048600846406840F4E810486008460068BC
:101D000040F08070086000BF0C48006800F0007070
:101D10000028F9D00948406820F0030007494860CE
:101D20000846406840F00200486000BF0348406831
:101D300000F00C000828F9D10CBD00000010024092
:101D400000200240042808D14FF0E021096941F049
:101D500004014FF0E022116107E04FF0E021096932
:101D600021F004014FF0E02211617047704700003C
:101D700010B504466FF00400FFF7E4FFE11704EB31
:101D80005171C1F3C701074A11701046007800EB8A
:101D90004001C1EBC0104FF6FF7101EAC0000249DB
:101DA000088010BD140000201600002010B5134854
:101DB000006840F001001149086008464068104979
:101DC00008400E494860084600680E4908400B4923
:101DD00008600846006820F48020086008464068D3
:101DE00020F4FE0048604FF41F008860FFF735FFC5
:101DF0004FF000600449086010BD00000010024070
:101E00000000FFF8FFFFF6FE08ED00E07FB547A3F6
:101E10000FCB8DE80F0040F22551484800F007FA3B
:101E2000002874D0454800F0BDFAC5B24448008887
:101E300000F40040002872D14148008800F480403E
:101E4000002849D00A2D03D000203D49088066E0D3
:101E50003B48008840F40040394908800846008823
:101E6000C0F30D0600240DE000BF8021334800F0D0
:101E7000D1F90028F9D01DF80410304800F097FA85
:101E8000601C84B26846FEF7A5F9A042ECD800BFFA
:101E900080212A4800F0BEF90028F9D020212748E7
:101EA00000F085FA00240DE000BF8021234800F0F7
:101EB000B1F90028F9D02348015D204800F077FAF5
:101EC000601C84B2B442EFDB00201D490880C821A9
:101ED0001C48FEF762F922E00D2D06D11848008853
:101EE00040F480401649088019E015480088C0F386
:101EF0000D00C8280CDA12480088C0F30D00114903
:101F00000D540F480088401C0D49088007E00BE085
:101F100000200B490880C8210A48FEF73EF940F22C
:101F20002551064800F05BF97FBD000072657370B3
:101F30006F6E736520746578743A00000038014054
:101F4000180000202000002010B586B004460121B2
:101F50000420FFF707FE01218803FFF703FE4FF47B
:101F60000070ADF8140003208DF8160018208DF8CD
:101F7000170005A91E48FFF71DFC4FF48060ADF85F
:101F8000140004208DF8170005A91948FFF712FC6A
:101F900001940020ADF80800ADF80A00ADF80C007F
:101FA000ADF810000C20ADF80E0001A9114800F0AA
:101FB0008DF901210F4800F021F940210D4800F072
:101FC00005F9012240F225510A4800F05AF925206E
:101FD0008DF8000003208DF801008DF8020001202B
:101FE0008DF803006846FFF75DFD06B010BD0000E8
:101FF000000801400038014010B540F225511B484F
:1020000000F015F9D8B1194800F0CCF9C4B218485D
:10201000B0F80004C0F30E0040F2FF3188420EDA3F
:102020001349B1F80014C1F30E00411C104AB2F874
:10203000002461F30E020E49A1F800240C5440F272
:1020400024410A4800F0F3F801280DD10848B0F8FF
:10205000000420F4004000F500400549A1F8000408
:10206000024800F09FF9C4B210BD000000480040D3
:10207000E80000201FB5044600210C4800F0BEF81F
:1020800000940020ADF80400ADF80600ADF808009B
:10209000ADF80C000C20ADF80A006946034800F0CA
:1020A00015F90121014800F0A9F81FBD00480040C2
:1020B0000FB470B586B006460CA801907DE00B9871
:1020C00000785C2826D10B98401C0B9000782228C1
:1020D00013D06E2809D0722817D10D21304600F098
:1020E00066F90B98401C0B9013E00A21304600F073
:1020F0005EF90B98401C0B900BE02221304600F05B
:1021000056F90B98401C0B9003E00B98401C0B9069
:1021100000BF4BE00B980078252840D10B98401C5D
:102120000B900078642818D0732833D1019810C818
:1021300001900BE02178304600F039F900BF802192
:10214000304600F067F80028F9D0641C2078002899
:10215000F0D10B98401C0B9020E0019820C8019012
:102160000A2202A9284600F0DFFB02AC0BE021782E
:10217000304600F01CF900BF8021304600F04AF8DC
:102180000028F9D0641C20780028F0D10B98401C5E
:102190000B9003E00B98401C0B9000BF06E00B98DF
:1021A00010F8011B0B90304600F001F900BF8021B0
:1021B000304600F02FF80028F9D00B98007800285E
:1021C0007FF47DAF06B070BC5DF814FB01F40072C3
:1021D000B2F5007F00D100BFCA430280704710B53E
:1021E0000022002340F66A14A14200D100BF0A1267
:1021F00001249440A3B2DC43048010BD21B1828944
:1022000042F40052828104E082894DF6FF731A4045
:102210008281704702460020B1F5007F00D100BFE7
:1022200013880B400BB1012000E00020704770B50F
:102230000246002400230025002040F66A16B14221
:1022400000D100BFC1F3421501F01F03012606FAB9
:1022500003F3012D02D19689334006E0022D02D10D
:10226000168A334001E0968A33400C12012606FAA2
:1022700004F41688344013B10CB1012000E00020B2
:1022800070BDF0B50346002400260025002040F66E
:102290006A17B94200D100BF1846C1F3421401F0D9
:1022A0001F06012707FA06F5012C01D10C3004E0C6
:1022B000022C01D1103000E014301AB107682F430E
:1022C000076002E00768AF430760F0BD2DE9F04703
:1022D00086B005460E460024A24600BFA146002750
:1022E000B08900B100BF2F462C8A4CF6FF70044025
:1022F000F08804432C82AC894EF6F3100440B08879
:1023000031890843718908430443AC81AC8A4FF694
:10231000FF400440B0890443AC8201A8FFF732FCBF
:102320001F48874202D1DDF810A001E0DDF80CA0C3
:10233000A88900F4004040B10AEBCA0000EB0A1083
:1023400031684900B0FBF1F807E00AEBCA0000EB86
:102350000A1031688900B0FBF1F86420B8FBF0F096
:1023600004012009642101FB1089A88900F40040C0
:1023700040B1322000EBC900B0FBF1F000F00700E3
:10238000044308E0322000EB09106421B0FBF1F0B7
:1023900000F00F0004432C8106B0BDE8F087000078
:1023A0000038014001468888C0F308007047C1F337
:1023B00008028280704700BFFEE7000000B587B0CA
:1023C00001218804FFF7BEFB01210820FFF7CAFBAB
:1023D00001210420FFF7C6FB01210846FFF7C2FBDD
:1023E00001213648FFF772FA4FF48060ADF818000B
:1023F00003208DF81A0018208DF81B0006A930481C
:10240000FFF7D8F94FF40060ADF8180004208DF8FC
:102410001B0006A92A48FFF7CDF91020ADF81800D7
:102420008DF81B0003208DF81A0006A92548FFF738
:10243000C1F910212348FFF793FA4FF40040ADF89B
:10244000180006A91F48FFF7B5F94FF400411D48D1
:10245000FFF786FA4FF4E13002900020ADF80C004F
:10246000ADF80E00ADF81000ADF814000C20ADF87A
:10247000120002A91448FFF729FF012240F225515A
:102480001148FFF7FEFE012240F224410E48FFF7FB
:10249000F8FE01210C48FFF7B1FE27208DF804005B
:1024A00000208DF805008DF8060001208DF807004A
:1024B00001A8FFF7F7FA07B000BD000000023000E6
:1024C000000C014000080140004800400FB4054BDB
:1024D00010B503A9044A029800F02CF810BC5DF86E
:1024E00014FB0000052900081C0000200FB4084B55
:1024F00010B504A902AA039800F01CF8044602A92A
:10250000002000F0B8F9204610BC5DF814FB000074
:102510007728000802E008C8121F08C1002AFAD173
:1025200070477047002001E001C1121F002AFBD153
:10253000704700002DE9FF4F8BB088460546002606
:1025400006E025280BD0DDE90D1290476D1C761CA6
:1025500028780028F5D10FB03046BDE8F08F002470
:10256000A146A2460122AE4900E0044315F8013F0E
:10257000203B02FA03F00842F7D128782A2810D02D
:102580006FF02F022878A0F13001092915D809EB46
:10259000890102EB410144F0020400EB01096D1CCA
:1025A000F0E758F8041B5FEA010903D544F400542E
:1025B000C9F1000944F002046D1C28782E2817D1B7
:1025C00015F8010F44F004042A280ED06FF02F02F2
:1025D0002878A0F1300109290AD80AEB8A0102EB18
:1025E000410100EB010A6D1CF2E758F804AB6D1CC9
:1025F00028786C280FD006DC4C2817D068280DD01E
:102600006A2814D104E0742810D07A280FD10DE084
:1026100044F400140AE044F4801401E044F440144B
:102620006978814202D104F580146D1C6D1C2878F4
:10263000692865D006DC00288DD0632827D064285F
:1026400006D15DE06E2808D073282AD0752877D08F
:10265000DDE90D129047761CE0E0C4F30250022839
:1026600009D003280DD0D8F8001004280DD00E6032
:1026700008F10408D2E0D8F80010F217C1E90062AE
:10268000F6E7D8F800100E80F2E70E70F0E718F8C1
:10269000041B8DF8001000208DF80100EB4601208E
:1026A00003E058F804BB4FF0FF3061074FF000071C
:1026B00001D40AE07F1C57450DDA8742FADB1BF88C
:1026C00007100029F6D106E07F1C8742FCDB1BF8CF
:1026D00007100029F8D1DDE90D23A9EB0700814699
:1026E000214600F0B1F83044C61904E0DDE90D12CE
:1026F0001BF8010B90477F1EF8D22146484688E020
:1027000058F8040BC4F302514FF00A0B032900D10F
:1027100000B2042900D140B2002802DA40422D2143
:1027200002E0210505D52B218DF82410012104E0BC
:1027300006E0E10710D02021F6E708AF089113E08A
:1027400058F8040BC4F302514FF00A0B032900D1CF
:1027500080B2042900D1C0B20021EEE75946FDF74E
:10276000FFFE303107F8011D0028F7D1ADEB07005F
:1027700000F1200B600702D524F4803401E04FF013
:10278000010ADA4502DDAAEB0B0000E000208246D8
:1027900000EB0B0108980144A9EB01000A90E0034B
:1027A00006D4DDE90D2321460A9800F04DF80644D1
:1027B0004FF0000908E009A911F80900DDE90D1240
:1027C000904709F10109761C08998945F3DBE0037C
:1027D0000CD5DDE90D2321460A9800F035F80644B2
:1027E00004E0DDE90D1230209047761CBAF10001BB
:1027F000AAF1010AF5DC05E0DDE90D1217F8010B7D
:102800009047761CBBF10001ABF1010BF4DC0A9898
:102810002146DDE90D2300F005F806446D1C97E61E
:10282000092801002DE9F041044600251E461746FF
:10283000880404D405E039462020B0476D1C641E8E
:10284000F9D52846BDE8F0812DE9F0410446002580
:102850001E469046C80301D5302700E02027880493
:1028600004D505E041463846B0476D1C641EF9D5D5
:102870002846BDE8F0810A68531C0B601070704751
:1028800070B504464FF4077094FBF0F0C6B24FF4F5
:10289000077094FBF0F100FB114085B205E04FF4A6
:1028A000077000F009F8701EC6B2002EF7D115B1FE
:1028B000284600F001F870BD0146114A12884A43CB
:1028C0004FF0E0235A6100229A611A46126942F0E1
:1028D00001021A6100BF4FF0E022106900F001020E
:1028E0001AB100F48032002AF5D04FF0E0221269CC
:1028F00022F001024FF0E0231A6100229A61704732
:102900001600002070B504460D46E1B20548FFF7F9
:102910004EFD00BF80210348FFF77CFC0028F9D062
:10292000204670BD00380140F0B503460D461646FE
:10293000002729460A2E03D0002008702846F0BD43
:1029400033B9302001F8010B002008702846F6E763
:10295000002B03DA2D2001F8010B5B4242F21072CA
:102960000DE093FBF2F404B937B104F1300001F843
:10297000010B04FB123301270A2092FBF0F2002A1C
:10298000EFDC002008702846D9E700008CB0002555
:102990004820FFF7EDF94FF4A060FFF7BBF84FF4C4
:1029A000E130FFF7D1FAFFF753F8FDF7E5FFFDF748
:1029B00019FFFFF703FD2CA0FFF788FD36A0FFF7F6
:1029C00085FD3FA0FFF782FD48A0FFF77FFDFEF7E2
:1029D0008FF94DA0FFF77AFD52A0FFF777FD5DA0BC
:1029E000FFF774FD63A0FFF771FD6DA0FFF76EFDAB
:1029F00073A0FFF76BFD5FA0FFF768FD32E0FEF705
:102A0000E3FF0446FEF7D8FF8046642094FBF0F114
:102A100000FB114694FBF0F733463A4670A104A838
:102A2000FFF764FD424670A16846FFF75FFD6B4605
:102A300004AA29466DA0FFF749FD04A975A0FEF779
:102A4000F5FD10B178A0FFF741FD8248006808B994
:102A5000012000E000207F4908606D1C41F28830B1
:102A6000FFF70EFFCBE700000D0A3D3D3D3D3D3D2C
:102A70003D3D3D3D3D3D3D3D3D3D3D3D3D3D3D3D86
:102A80003D3D3D3D3D3D3D3D3D3D3D3D3D3D3D3D76
:102A90003D3D0D0A0000000020202053544D3332EC
:102AA000204D515454202D3E2050686F6E652044B7
:102AB0006973706C61792044656D6F0D0A000000C8
:102AC0003D3D3D3D3D3D3D3D3D3D3D3D3D3D3D3D36
:102AD0003D3D3D3D3D3D3D3D3D3D3D3D3D3D3D3D26
:102AE0003D3D3D3D3D3D3D3D0D0A00000D0A496E19
:102AF000697469616C697A696E6720455350383230
:102B000036362E2E2E0D0A000D0A5B4F4B5D204DE2
:102B100051545420636F6E6E6563746564210D0AB1
:102B2000000000000D0A2D2D2D2D2D2D2D2D2D2DCC
:102B30002D2D2D2D2D2D2D2D2D2D2D2D2D2D2D2DC5
:102B40002D2D2D2D2D2D2D2D2D2D2D2D2D2D0D0AF8
:102B500000000000202053544D3332202D3E2050E1
:102B6000686F6E65204D5154542044656D6F0D0A99
:102B7000000000002D2D2D2D2D2D2D2D2D2D2D2D39
:102B80002D2D2D2D2D2D2D2D2D2D2D2D2D2D2D2D75
:102B90002D2D2D2D2D2D2D2D2D2D2D2D0D0A000002
:102BA00020205075626C6973683A2070686F6E659A
:102BB0002F74656D70657261747572650D0A000021
:102BC000202042726F6B65723A2062726F6B657281
:102BD0002E656D71782E696F3A313838330D0A00E1
:102BE00025642E2530326400257500000D0A5B54E3
:102BF0002530346C755D2054454D503A20257320A6
:102C00004320207C20204C494748543A2025730D0E
:102C10000A00000070686F6E652F74656D706572D4
:102C200061747572650000005B4D5154545D205015
:102C300075626C697368656420746F2070686F6E6C
:102C400065207375636365737366756C6C79210DAC
:102C50000A0000009481214200C20100802500008A
:102C6000004B00000096000000E100008C2C0008E2
:102C7000000000202000000014250008AC2C0008F3
:102C800020000020D00800002425000800000000DB
:102C900001020304010203040607080902040608EE
:0C2CA00000000000000000000000000028
:0400000508000131BD
:00000001FF
